:020000040000FA
:060000000A128A11F32F21
:10000800831203138611061286160800F800780872
:1000180003190F2810282428F31F1328142824282C
:100028007009FA007109FB007209FC007309FD00F0
:10003800FA0A0319FB0A0319FC0A0319FD0A2C28FA
:100048007308FD007208FC007108FB007008FA00D4
:100058007308720471047004031D332834283D2882
:100068000030F3000030F2000030F1000030F00002
:10007800C3289630F4007408F9004F280130F400C2
:100088007408F90701300310FD0CFC0CFB0CFA0C8A
:10009800FF3E031D4728FE307D05031D54285528C3
:1000A800422871280130F4007408F9070130FA0772
:1000B800003003180130FB07003003180130FC073B
:1000C800003003180130FD0701300310FD0CFC0C53
:1000D800FB0CFA0CFF3E031D6928FF307D05031D4C
:1000E80076287728562883280130F9020130F40051
:1000F8000310FA0DFB0DFC0DFD0DF40B7C28FC1B09
:10010800862887288D280230790203188C288D28A4
:1001180078287918902891289928FF30FA05FF3017
:10012800FB057F30FC05FF30FD050310F90C79084D
:10013800F400F501F601F70118300310F40DF50D80
:10014800F60DF70DFF3E031DA1287408FA04750883
:10015800FB047608FC047708FD0478080319B52821
:10016800B628BB28F31FB928BA28BB28FD177D0875
:10017800F3007C08F2007B08F1007A08F000080020
:100188008312031323088039A8002808AD00230828
:10019800A8002807A9002908B300A21FD428D52839
:1001A800D628331433080319DA28DB28EA28330A57
:1001B800031DDF28E028E8280030A3000030A20053
:1001C8000030A1000030A000A217F2280030A300E0
:1001D8000030A2000030A1000030A00027088039BC
:1001E800A8002808AD062708A8002807A90029089C
:1001F800B200A61F00290129022932143208031966
:10020800062907291629320A031D0B290C29142946
:100218000030A7000030A6000030A5000030A40080
:10022800A6171E290030A7000030A6000030A50040
:100238000030A40032080319222923292829330869
:10024800031D2729282931290030A3000030A200E6
:100258000030A1000030A000242C2008A8002808A5
:10026800F00026080A128A15FD240A128A1171085C
:1002780083120313B9007008B8003808A800A90150
:10028800AA01AB012B08B1002A08B0002908AF0069
:100298002808AE003908A800A901AA01AB012B085B
:1002A800B7002A08B6002908B5002808B4002108B4
:1002B800A8002808F00025080A128A15FD240A1249
:1002C8008A11710883120313B9007008B80038083E
:1002D800A800A901AA01AB012808AE072908031143
:1002E8000318013E03197929AF072A0803110318D7
:1002F800013E03198029B0072B0803110318013E9A
:1003080003198729B1073908A800A901AA01AB0177
:100318002808B407290803110318013E0319952971
:10032800B5072A0803110318013E03199C29B607CB
:100338002B0803110318013E0319A329B707220844
:10034800A8002808F00024080A128A15FD240A12B9
:100358008A11710883120313B9007008B8003808AD
:10036800A800A901AA01AB012808AE0729080311B2
:100378000318013E0319C129AF072A0803110318FE
:10038800013E0319C829B0072B0803110318013EC1
:100398000319CF29B1073908A800A901AA01AB019F
:1003A8002808B407290803110318013E0319DD2999
:1003B800B5072A0803110318013E0319E429B607F3
:1003C8002B0803110318013E0319EB29B70708305E
:1003D800A8000310AE0DAF0DB00DB10DA80BED299F
:1003E8002108A8002808F00024080A128A15FD240C
:1003F8000A128A11710883120313B9007008B80031
:100408003808A8003908A900AA01AB012808AE07D6
:10041800290803110318013E0319132AAF072A08F4
:1004280003110318013E03191A2AB0072B080311F8
:100438000318013E0319212AB1072008A80028083B
:10044800F00025080A128A15FD240A128A1171087B
:1004580083120313B9007008B8003808A8003908D7
:10046800A900AA01AB012808AE072908031103183F
:10047800013E0319402AAF072A0803110318013E59
:100488000319472AB0072B0803110318013E031963
:100498004E2AB1070830A8000310AE0DAF0DB00DFD
:1004A800B10DA80B502A2008A8002808F00024083D
:1004B8000A128A15FD240A128A117108831203137D
:1004C800B9007008B8003808A8003908A900AA01BE
:1004D800AB012808AE07290803110318013E0319C8
:1004E800762AAF072A0803110318013E03197D2A4B
:1004F800B0072B0803110318013E0319842AB1071A
:100508002108A8002808F00026080A128A15FD24E8
:100518000A128A11710883120313B9007008B8000F
:100528003808A8003908A900AA01AB012808B407AF
:10053800290803110318013E0319A32AB5072A083D
:1005480003110318013E0319AA2AB6072B08031141
:100558000318013E0319B12AB7072208A800280882
:10056800F00025080A128A15FD240A128A1171085A
:1005780083120313B9007008B8003808A8003908B6
:10058800A900AA01AB012808B40729080311031818
:10059800013E0319D02AB5072A0803110318013EA2
:1005A8000319D72AB6072B0803110318013E0319AC
:1005B800DE2AB7072208A8002808F00026080A1231
:1005C8008A15FD240A128A11710883120313B900CF
:1005D8007008B8003808A8003908A900AA01AB01BA
:1005E80008300310A80DA90DAA0DAB0DFF3E031D81
:1005F800F52A2808B407290803110318013E03192E
:10060800062BB5072A0803110318013E03190D2B01
:10061800B6072B0803110318013E0319142BB7075B
:100628002E08A8002F08A9003008AA003108AB003E
:1006380018300310AB0CAA0CA90CA80CFF3E031D24
:100648001D2B2808B407290803110318013E0319B4
:100658002E2BB5072A0803110318013E0319352B61
:10066800B6072B0803110318013E03193C2BB707E3
:100678000830A8000310AE0DAF0DB00DB10DA80BDA
:100688003E2B33083207A800A901A90D2808823E8D
:10069800B80029080318013EFF3EB900702B01304D
:1006A800A8000310B40DB50DB60DB70DA80B552B4A
:1006B800B11F5F2B602B612B34140130A80003108D
:1006C800AE0DAF0DB00DB10DA80B632BFF30B80701
:1006D8000318B90AFF30B907B61F732B742B532BB5
:1006E800B201B11F782B792B952BFF302E05A8006E
:1006F800FF302F05A900FF303005AA007F303105F3
:10070800AB002B082A042904280403198C2B8D2BF1
:10071800902BB201B20A952B341C932B942B952B5A
:100728008D2B32080319992B9A2BCB2B0130B40748
:10073800003003180130B507003003180130B60740
:10074800003003180130B707371CAB2BAC2BCB2B71
:100758003408A8003508A9003608AA003708AB00F5
:100768000130AC002B0DAB0CAA0CA90CA80CAC0BDF
:10077800B62B2B08B7002A08B6002908B5002808A8
:10078800B4000130B8070318B90A0030B9073908AE
:10079800803AFF0080307F02031DD42BFF303802DF
:1007A800031CD72BD82BE32B7F3083120313B700FE
:1007B8008030B6000030B5000030B400182C831229
:1007C80003133908803AFF0080307F02031DEE2BA7
:1007D800013038020318F12BF22BFE2B0030831264
:1007E8000313B7000030B6000030B5000030B40085
:1007F800AD01182C831203133808A8002808B30089
:10080800FF30B405FF30B5057F30B6050030B705B9
:10081800331C0F2C102C112CB6173308A80003100A
:10082800280CA9002908B7002D08A8002808B70433
:100838003708A3003608A2003508A1003408A00034
:100848000800831603139F171F13831203139F17A0
:100858001F13831603139F111F119F141F100F30AE
:100868008500831203131F14C030831603138600F8
:1008780083120313860183160313091083120313CB
:1008880009108316031388018312031388010A12BF
:100898008A15AF250A128A11053083120313C50081
:1008A8004508F40001300A128A155D250A128A11DA
:1008B80011300A128A15D8240A128A11F401F40A8E
:1008C80002300A128A155D250A128A11063083122F
:1008D8000313C7001330C600AD30C500C50B722C1A
:1008E800C60B722CC70B722C01300A128A15D82439
:1008F8000A128A110B3083120313C7002630C60070
:100908005D30C500C50B862CC60B862CC70B862C04
:10091800203083120313C500C50B902C0000C7308C
:10092800831203139F051F151F199B2C9C2C982CB1
:100938001E08DF00831603131E0883120313DE004C
:100948005F08803AFF0082307F02031DAD2C6630BD
:100958005E020318B02CB12CC02C831203135F085D
:10096800803AFF0081307F02031DBC2C71305E028B
:100978000318BF2CC02CC42C831203130614C72CD5
:10098800831203130610203083120313C500C50B0E
:10099800CB2C0000831203131F08C73908389F00A7
:1009A8001F151F19D82CD92CD52C1E08DD0083162D
:1009B80003131E0883120313DC005D08803AFF004E
:1009C80082307F02031DEA2C66305C020318ED2C8E
:1009D800EE2CFD2C831203135D08803AFF00813052
:1009E8007F02031DF92C71305C020318FC2CFD2CCE
:1009F800012D831203138614042D8312031386100A
:100A0800203083120313C500C50B082D0000831284
:100A180003131F08C73910389F001F151F19152DFC
:100A2800162D122D1E08DB00831603131E088312D1
:100A38000313DA005B08803AFF0082307F02031D4F
:100A4800272DD0305A0203182A2D2B2D3A2D831228
:100A580003135B08803AFF0081307F02031D362DA7
:100A680071305A020318392D3A2D3E2D8312031383
:100A78000615412D83120313061120308312031328
:100A8800C500C50B452D000083120313061F4D2D0D
:100A98004E2DB92D5F08803AC5005D08803A4502A1
:100AA800031D582D5C085E02031C5B2D5C2D882DF0
:100AB800831203130618612D622D882D5B08803A76
:100AC800C5005F08803A4502031D6C2D5E085A0276
:100AD80003186F2D702D762D0A128A1556240A12C6
:100AE8008A11222E8312031306197B2D7C2D822D49
:100AF8000A128A1104200A128A11222E0A128A1551
:100B080050240A128A11222E831203135D08803A98
:100B1800C5005F08803A4502031D942D5E085C02FB
:100B2800031C972D982D222E8312031386189D2DB2
:100B38009E2D222E5B08803AC5005D08803A45024A
:100B4800031DA82D5C085A020318AB2DAC2DB22D3D
:100B58000A128A155C240A128A11222E83120313A0
:100B68000619B72DB82D822D7C2D861FBC2DBD2DC5
:100B7800132E5D08803AC5005F08803A4502031DC0
:100B8800C72D5E085C02031CCA2DCB2DE72D8312EE
:100B980003130618D02DD12DE72D5F08803AC50024
:100BA8005B08803A4502031DDB2D5A085E020318D4
:100BB800DE2DDF2DE02D702D831203130619E52D90
:100BC800E62D822D7C2D831203135F08803AC50021
:100BD8005D08803A4502031DF32D5C085E02031C84
:100BE800F62DF72D222E831203138618FC2DFD2DCA
:100BF800222E5D08803AC5005B08803A4502031D35
:100C0800072E5A085C0203180A2E0B2E0C2EAC2D48
:100C1800831203130619112E122E822D7C2D06180D
:100C2800162E172E182E702D86181B2E1C2E1D2ED4
:100C3800AC2D0619202E212E822D7C2D0A128A1504
:100C48006A240A128A11053083120313C500450865
:100C5800F40001300A128A155D250A128A118312DE
:100C680003131F08C73918389F00C801C901831228
:100C780003131F151F19412E422E3E2E1E08D700A2
:100C8800831603131E0883120313D6005308803AF1
:100C9800C5005708803A4502031D542E56085202D3
:100CA8000318572E582E5E2E831203135708D300AD
:100CB8005608D200831203135708803AC50051081A
:100CC800803A4502031D6A2E5008560203186D2EFD
:100CD8006E2E742E831203135708D1005608D000C5
:100CE800BD3083120313C500792EC50B782E7C2ED8
:100CF800013083120313C8070318C90A0030C90753
:100D08004908803AFF0080307F02031D8D2E643031
:100D18004802031C902E912E3B2E0230F00000302A
:100D2800F1008312031350085202F2005108031C09
:100D3800510A5302F3000A128A150D260A128A1163
:100D4800710883120313D7007008D600861DAD2ED4
:100D5800AE2EF02E5E08F0005F08F1000030F11BA7
:100D6800FF30F200F30001300A128A110A200A1239
:100D78008A11730883120313A7007208A60071086A
:100D8800A5007008A4003F30A3000030A200003086
:100D9800A1000030A0000A128A11C4200A128A1188
:100DA800831203132308BD002208BC002108BB00DE
:100DB8002008BA000A128A1574260A128A118312A8
:100DC80003133B08D9003A08D8002B300A128A15B9
:100DD800D8240A128A11842F061EF32EF42E362FD9
:100DE8005C08F0005D08F1000030F11BFF30F200F4
:100DF800F30001300A128A110A200A128A117308B4
:100E080083120313A7007208A6007108A5007008D2
:100E1800A4003F30A3000030A2000030A100003041
:100E2800A0000A128A11C4200A128A11831203131D
:100E38002308BD002208BC002108BB002008BA0016
:100E48000A128A1574260A128A11831203133B08A0
:100E5800D9003A08D8002E300A128A15D8240A1266
:100E68008A11842F861E392F3A2F7C2F5A08F000BA
:100E78005B08F1000030F11BFF30F200F300013095
:100E88000A128A110A200A128A117308831203139C
:100E9800A7007208A6007108A5007008A4003F30DA
:100EA800A3000030A2000030A1000030A0000A1208
:100EB8008A11C4200A128A11831203132308BD0061
:100EC8002208BC002108BB002008BA000A128A15B3
:100ED80074260A128A11831203133B08D9003A08B0
:100EE800D80031300A128A15D8240A128A11842FA0
:100EF800D801D90127300A128A15D8240A128A1172
:100F0800831203135908F1005808F0005708F3003A
:100F18005608F2000A128A15B3240A128A117108B7
:100F280083120313D5007008D4000730C5004508A4
:100F3800F40001300A128A155D250A128A118312FB
:100F480003135508FA005408F9000A128A15F02606
:100F58000A128A1121300A128A15D8240A128A1113
:100F6800F401F40A02300A128A155D250A128A1160
:100F78001A300A128A15D8240A128A118312031306
:100F88005908FA005808F9000A128A15F0260A12B8
:100F98008A1156300A128A1524250A128A118312D8
:100FA80003130914413083120313C600ED30C50042
:100FB800C50BDC2FC60BDC2FE12F8312031309109E
:100FC800413083120313C600ED30C500C50BEA2F6C
:100FD800C60BEA2FEF2F8C2C0A128A1100288313D4
:100FE8004A30840060300A128A1562240A128A1173
:100FF80083010A128A11252C08308A000408840A01
:10100800820700346134753474346F34203470349A
:101018006834613473346534203473347934733408
:101028006D340034413465346F346E342D344134BA
:1010380074346B34003476346F346C3474347334F1
:101048003A340034573461347434743473340034AB
:101058004F3446344634003441342D34003442345D
:0A1068002D34003443342D340034DD
:1018A0008312031386110612861208008312031393
:1018B0008615061286120800831203138611061677
:1018C0008612080064008001840A040603190034AB
:1018D0000406632C00300A128A1577240A128A152E
:1018E00001300A128A1577240A128A150800F300BB
:1018F00083120313881073080A128A1591240A129E
:101900008A158312031388151A30F200F830F1009B
:10191000F10B882CF20B882C000083120313881122
:101920000800F000701C952C962C9A2C831203133F
:1019300008169D2C831203130812F01CA02CA12C56
:10194000A32C8816A42C8812701DA72CA82CAA2CB6
:101950000817AB2C0813F01DAE2CAF2CB12C881738
:10196000B22C88130800F401F501701CB82CB92CB6
:10197000BF2C7208F4070318F50A7308F507013045
:101980000310F20DF30DFF3E031DC02C01300310B8
:10199000F10CF00CFF3E031DC72C70087104031DF1
:1019A000D22CD32CB52C7508F1007408F000080077
:1019B000F700F501F601EF2C7508770784000A128D
:1019C0008A1500200A128A150A128A1524250A127D
:1019D0008A150130F5070318F60A0030F607750876
:1019E000770784000A128A1500200A128A15003A25
:1019F000031DFB2CFC2CDC2C0800F800F401F50185
:101A00007008F200F3017208F6007308F700781C02
:101A10000A2D0B2D112D7608F4070318F50A770807
:101A2000F50701300310F60DF70DFF3E031D122DD3
:101A30000310F80C7808031D1E2D1F2D072D7508A7
:101A4000F1007408F0000800F40074080F39F10088
:101A50007108F2007408F039F1007108F300831284
:101A6000031388147308F10004300310F10CFF3ED7
:101A7000031D352D71080A128A1591240A128A1540
:101A80008312031388154230F100F10B452D00003D
:101A900083120313881172080A128A1591240A12FC
:101AA0008A158312031388154230F100F10B562D6D
:101AB00000008312031388110800F7007703031D49
:101AC000622D632D862D74087F3EF5007508FA009F
:101AD0007A08F50004300310F50CFF3E031D6B2D52
:101AE0007508F6007608F8007A080F39F5007508D1
:101AF000F90078080A128A1577240A128A157908DB
:101B00000A128A1577240A128A15AE2D023077063A
:101B1000031D8B2D8C2DAE2D7408BF3EF50075086E
:101B2000FA007A08F50004300310F50CFF3E031D9F
:101B3000942D7508F6007608F8007A080F39F5003C
:101B40007508F90078080A128A1577240A128A158E
:101B500079080A128A1577240A128A1508000030BB
:101B60000A128A1591240A128A158230F500DD3096
:101B7000F400F40BB92DF50BB92DBE2D03300A126C
:101B80008A1577240A128A152130F5007630F40080
:101B9000F40BC82DF50BC82D000003300A128A156E
:101BA00077240A128A154830F5006C30F400F40BE3
:101BB000D72DF50BD72D000003300A128A15772494
:101BC0000A128A1502300A128A1577240A128A1517
:101BD00002300A128A1577240A128A1508300A126E
:101BE0008A1577240A128A1500300A128A1577247A
:101BF0000A128A150C300A128A1577240A128A15DD
:101C000000300A128A1577240A128A1506300A1241
:101C10008A1577240A128A150800F601F11F112E81
:101C2000122E192EF009F109F00A0319F10AF60132
:101C3000F60AF31F1C2E1D2E262EF209F309F20AB6
:101C40000319F30A0130F4007408F606F701F801ED
:101C50007008710403192D2E2E2E652EF501F50A3C
:101C60003C2E01300310F00DF10DFF3E031D322E0E
:101C70000130F4007408F507F11F3F2E402E312E7D
:101C800001300310F70DF80DFF3E031D412E7108C2
:101C90007302031D4D2E70087202031C502E512E2C
:101CA000582E7008F2027108031CF303F302771434
:101CB00001300310F10CF00CFF3E031D592E0130D2
:101CC000F502031D642E652E402E76080319692E39
:101CD0006A2E6F2EF709F809F70A0319F80A78082F
:101CE000F1007708F00008000310831203133C0D85
:101CF0003D0DBE003E08C4004408031D802E812E09
:101D00008A2E0030BD000030BC000030BB00003027
:101D1000BA00EF2E3A08BE003B08BF003C08C000E6
:101D20003D08C1001F300310C10CC00CBF0CBE0C1D
:101D3000FF3E031D932E3E08C2004208C300BC179D
:101D4000FF30BA05FF30BB05FF30BC050030BD05D4
:101D50009630C402C41FAD2EAE2EC82E4408803A61
:101D6000973E0318B42EB52EB62E812E01300310E7
:101D7000BD0CBC0CBB0CBA0CFF3E031DB72E0130D2
:101D8000BE003E08C407031DC62EC72EB62EDF2E8A
:101D900020304402031CCD2ECE2EDA2E812E0130AF
:101DA000BE000310BA0DBB0DBC0DBD0DBE0BD12E78
:101DB0000130C4024408031DDE2EDF2ECF2E43085F
:101DC0000319E32EE42EEF2EBA09BB09BC09BD09A5
:101DD000BA0A0319BB0A0319BC0A0319BD0A080091
:101DE000223084000630FF0083138001840AFF0B39
:101DF000F42E7A08803AFF0080307F02031D022F04
:101E00000A3079020318052F062F0E2F7908303E6D
:101E10000A128A1524250A128A15FF2F0A30F000AB
:101E20000030F1007A08F3007908F2000A128A15EE
:101E30000D260A128A15710883120313A90070086F
:101E4000A8002908F1002808F000F630F200FF3061
:101E5000F3000A128A15B3240A128A15790870074A
:101E600083120313A2007A0803187A0A7107A300E9
:101E70002908FA002808F9007A08803AFF00803023
:101E80007F02031D452F0A3079020318482F492F7E
:101E90005A2F7908303E0A128A1524250A128A150B
:101EA000831203132208303E0A128A1524250A12CF
:101EB0008A15FF2F0A30F0000030F1007A08F30095
:101EC0007908F2000A128A150D260A128A1571087D
:101ED00083120313A9007008A8002908F10028083C
:101EE000F000F630F200FF30F3000A128A15B32436
:101EF0000A128A157908700783120313A4007A085E
:101F000003187A0A7107A5002908FA002808F900C1
:101F10007A08803AFF0080307F02031D912F0A303B
:101F200079020318942F952FAF2F7908303E0A12AB
:101F30008A1524250A128A15831203132208303EBB
:101F40000A128A1524250A128A15831203132408FB
:101F5000303E0A128A1524250A128A15FF2F0A30EC
:101F6000F0000030F1007A08F3007908F2000A125C
:101F70008A150D260A128A15710883120313A90007
:101F80007008A8002908F1002808F000F630F200D7
:101F9000FF30F3000A128A15B3240A128A15790851
:101FA000700783120313A2007A0803187A0A7107D4
:101FB000A3002908FA002808F9007908303E0A121F
:101FC0008A1524250A128A15831203132208303E2B
:101FD0000A128A1524250A128A158312031324086B
:101FE000303E0A128A1524250A128A158312031319
:101FF0002608303E0A128A1524250A128A1508007E
:02400E00FB1E97
:00000001FF
