:020000040000FA
:100000000A128A11F32F00308A000408840A82073A
:1000100000346134753474346F342034703468348F
:1000200061347334653420347334793473346D340B
:100030000034413465346F346E342D3441347434BB
:100040006B34003476346F346C34743473343A3433
:0200500000347A
:10060600831203138611061286120800831203133F
:100616008615061286120800831203138611061623
:100626008612080083120313861106128616080026
:1006360064008001840A04060319003404061C2B96
:1006460000300A128A1130230A128A1101300A1266
:100656008A1130230A128A110800F3008312031349
:10066600881073080A128A114A230A128A11831201
:10067600031388151A30F200F830F100F10B412B04
:10068600F20B412B00008312031388110800F000BF
:10069600701C4E2B4F2B532B831203130816562B0D
:1006A600831203130812F01C592B5A2B5C2B881645
:1006B6005D2B8812701D602B612B632B0817642B32
:1006C6000813F01D672B682B6A2B88176B2B881372
:1006D6000800F700F501F601832B750877078400FB
:1006E6000A128A1103200A128A110A128A11B623E3
:1006F6000A128A110130F5070318F60A0030F607C8
:100706007508770784000A128A1103200A128A11D3
:10071600003A031D8F2B902B702B0800F401F50176
:10072600701C962B972B9D2B7208F4070318F50A5D
:100736007308F50701300310F20DF30DFF3E031D9C
:100746009E2B01300310F10CF00CFF3E031DA52B70
:1007560070087104031DB02BB12B932B7508F100A3
:100766007408F0000800F40074080F39F1007108ED
:10077600F2007408F039F1007108F30083120313D4
:1007860088147308F10004300310F10CFF3E031DBA
:10079600C72B71080A128A114A230A128A11831278
:1007A600031388154230F100F10BD72B000083129A
:1007B6000313881172080A128A114A230A128A112F
:1007C6008312031388154230F100F10BE82B000069
:1007D6008312031388110800F7007703031DF42B17
:1007E600F52B182C74087F3EF5007508FA007A0878
:1007F600F50004300310F50CFF3E031DFD2B7508B4
:10080600F6007608F8007A080F39F5007508F90041
:1008160078080A128A1130230A128A1179080A12F4
:100826008A1130230A128A11402C02307706031DE2
:100836001D2C1E2C402C7408BF3EF5007508FA00CE
:100846007A08F50004300310F50CFF3E031D262C34
:100856007508F6007608F8007A080F39F50075086D
:10086600F90078080A128A1130230A128A117908C7
:100876000A128A1130230A128A11080000300A125D
:100886008A114A230A128A118230F500DD30F400FB
:10089600F40B4B2CF50B4B2C502C03300A128A11FF
:1008A60030230A128A112130F5007630F400F40B59
:1008B6005A2CF50B5A2C000003300A128A113023E9
:1008C6000A128A114830F5006C30F400F40B692CDA
:1008D600F50B692C000003300A128A1130230A1224
:1008E6008A1102300A128A1130230A128A11023042
:1008F6000A128A1130230A128A1108300A128A1142
:1009060030230A128A1100300A128A1130230A1281
:100916008A110C300A128A1130230A128A11003009
:100926000A128A1130230A128A1106300A128A1113
:1009360030230A128A110800F601F11FA32CA42CF9
:10094600AB2CF009F109F00A0319F10AF601F60ACF
:10095600F31FAE2CAF2CB82CF209F309F20A0319D7
:10096600F30A0130F4007408F606F701F80170087E
:1009760071040319BF2CC02CF72CF501F50ACE2CF7
:1009860001300310F00DF10DFF3E031DC42C0130A4
:10099600F4007408F507F11FD12CD22CC32C0130BA
:1009A6000310F70DF80DFF3E031DD32C71087302DB
:1009B600031DDF2C70087202031CE22CE32CEA2CC8
:1009C6007008F2027108031CF303F3027714013076
:1009D6000310F10CF00CFF3E031DEB2C0130F50269
:1009E600031DF62CF72CD22C76080319FB2CFC2CB5
:1009F600012DF709F809F70A0319F80A7808F10032
:100A06007708F0000800831603139F171F1383123D
:100A160003139F171F13831603139F111F119F1490
:100A26001F100F308500831203131F14C030831666
:100A3600031386008312031386018316031309101A
:100A460083120313091083160313880183120313F9
:100A560088010A128A1141240A128A110530FB0004
:100A66007B08F40001300A128A11EF230A128A1158
:100A760011300A128A116C230A128A11F401F40A3F
:100A860002300A128A11EF230A128A111A30FD0067
:100A96005E30FC006E30FB00FB0B4F2DFC0B4F2D28
:100AA600FD0B4F2D000001300A128A116C230A1229
:100AB6008A113330FD00BB30FC00DF30FB00FB0B3E
:100AC600622DFC0B622DFD0B622D692D2130FB0082
:100AD600FB0B6B2DC730831203139F051F151F19C0
:100AE600752D762D722D1E08AF00831603131E0872
:100AF60083120313AE002F08803AFF0082307F0274
:100B0600031D872D66302E0203188A2D8B2D9A2DF4
:100B1600831203132F08803AFF0081307F02031DE2
:100B2600962D71302E020318992D9A2D9E2D831223
:100B360003130614A12D8312031306102130FB00A4
:100B4600FB0BA32D831203131F08C73908389F0018
:100B56001F151F19AF2DB02DAC2D1E08AD00831625
:100B660003131E0883120313AC002D08803AFF00FE
:100B760082307F02031DC12D66302C020318C42D5E
:100B8600C52DD42D831203132D08803AFF00813022
:100B96007F02031DD02D71302C020318D32DD42DC6
:100BA600D82D831203138614DB2D831203138610AC
:100BB6002130FB00FB0BDD2D831203131F08C73901
:100BC60010389F001F151F19E92DEA2DE62D1E0866
:100BD600AB00831603131E0883120313AA002B0807
:100BE600803AFF0082307F02031DFB2DD0302A029F
:100BF6000318FE2DFF2D0E2E831203132B08803AA9
:100C0600FF0081307F02031D0A2E71302A0203186D
:100C16000D2E0E2E122E831203130615152E831279
:100C2600031306112130FB00FB0B172E831203134F
:100C3600061F1E2E1F2E8B2E2F08803AFB002D0816
:100C4600803A7B02031D292E2C082E02031C2C2E13
:100C56002D2E5A2E831203130618322E332E5A2E99
:100C66002B08803AFB002F08803A7B02031D3D2E9D
:100C76002E082A020318402E412E472E0A128A11E8
:100C860009230A128A11F42E8312031306194C2E15
:100C96004D2E532E0A128A1115230A128A11F42E8A
:100CA6000A128A1103230A128A11F42EF42E8312D1
:100CB60003132D08803AFB002F08803A7B02031DA0
:100CC600662E2E082C02031C692E6A2EF42E831221
:100CD600031386186F2E702EF42E2B08803AFB0015
:100CE6002D08803A7B02031D7A2E2C082A0203184F
:100CF6007D2E7E2E842E0A128A110F230A128A1145
:100D0600F42E831203130619892E8A2E592E4D2E80
:100D1600861F8E2E8F2EE52E2D08803AFB002F087B
:100D2600803A7B02031D992E2E082C02031C9C2E52
:100D36009D2EB92E831203130618A22EA32EB92EAA
:100D46002F08803AFB002B08803A7B02031DAD2E4C
:100D56002A082E020318B02EB12EB22E412E83126F
:100D660003130619B72EB82E532E4D2E83120313D6
:100D76002F08803AFB002D08803A7B02031DC52E02
:100D86002C082E02031CC82EC92EF42E8312031320
:100D96008618CE2ECF2EF42E2D08803AFB002B0877
:100DA600803A7B02031DD92E2A082C020318DC2E5A
:100DB600DD2EDE2E7E2E831203130619E32EE42E7D
:100DC600592E4D2E0618E82EE92EEA2E412E8618AB
:100DD600ED2EEE2EEF2E7E2E0619F22EF32E532E2C
:100DE6004D2E831203131F08C73918389F00B00110
:100DF600B101831203131F151F19022F032FFF2E94
:100E06001E08A700831603131E0883120313A600E9
:100E16002308803AFB002708803A7B02031D152F22
:100E2600260822020318182F192F1F2F83120313C7
:100E36002708A3002608A200831203132708803A76
:100E4600FB002108803A7B02031D2B2F2008260277
:100E560003182E2F2F2F352F831203132708A100D7
:100E66002608A000BD30FB00382FFB0B372F3B2F89
:100E76003C2F013083120313B0070318B10A003068
:100E8600B1073108803AFF0080307F02031D4D2FE5
:100E960064303002031C502F512FFC2E0230F0001C
:100EA6000030F1008312031320082202F200210809
:100EB600031C210A2302F3000A128A119F240A1234
:100EC6008A11710883120313A7007008A600861DF5
:100ED6006D2F6E2F812F2F08F1002E08F0000030A5
:100EE600F200F3000A128A1191230A128A1171087C
:100EF60083120313A9007008A800B12F061E842FC1
:100F0600852F982F2D08F1002C08F0000030F200F4
:100F1600F3000A128A1191230A128A1171088312A8
:100F26000313A9007008A800B12F861E9B2F9C2FC3
:100F3600AF2F2B08F1002A08F0000030F200F30072
:100F46000A128A1191230A128A1171088312031355
:100F5600A9007008A800B12FA801A9012908F1006D
:100F66002808F0002708F3002608F2000A128A1162
:100F760091230A128A11710883120313A5007008BF
:100F8600A4000A128A1123230A128A11F401F40A10
:100F960001300A128A11EF230A128A111A300A1234
:100FA6008A116C230A128A11831203130914413021
:100FB600FC00EE30FB00FB0BDE2FFC0BDE2F0000EF
:100FC6008312031309104130FC00EE30FB00FB0BCB
:100FD600EA2FFC0BEA2F0000692D0A128A1100285D
:100FE60083132030840030300A128A111B230A1220
:0A0FF6008A1183010A128A11062DE8
:02400E00FB1E97
:00000001FF
