:020000040000FA
:060000000A128A11F32F21
:10000C00F800F401F5017008F200F3017208F60033
:10001C007308F700781C132814281A287608F4079C
:10002C000318F50A7708F50701300310F60DF70DE4
:10003C00FF3E031D1B280310F80C7808031D27280E
:10004C00282810287508F1007408F00008008312A5
:10005C0003135D088039DE005E08E7005D08DE00F2
:10006C005E07DF005F08EE00DC1F3D283E283F28BE
:10007C006E146E0803194328442854286E0A031D75
:10008C004828492851280030DD000030DC000030C1
:10009C00DB000030DA00DC17DD015C280030DD000D
:1000AC000030DC000030DB000030DA005908803909
:1000BC00DE005E08E7065908DE005E07DF005F0819
:1000CC00EF00D81F6A286B286C286F146F0803196F
:1000DC007028712881286F0A031D752876287E28C0
:1000EC000030D9000030D8000030D7000030D600E6
:1000FC00D817D90189280030D9000030D800003039
:10010C00D7000030D6005908580457045604031D74
:10011C0090289128AA280030DD000030DC00003047
:10012C00DB000030DA008030DC047F30DD0467084F
:10013C00DE005E08DD045D08D9005C08D8005B08B1
:10014C00D7005A08D600092A6E08031DAE28AF281E
:10015C00B8280030D9000030D8000030D70000306B
:10016C00D600092A6E08DE00DF015F08E1006F0887
:10017C005E02E000031CE10360087F3EE8006108BA
:10018C000318013E003EE9005D08E6005C08E5004E
:10019C005B08E4005A08E3000030DD000030DC00AE
:1001AC000030DB000030DA000030ED000030EC00F5
:1001BC000030EB000030EA00EF012E296F08031924
:1001CC00E828E92809290130DE000310E30DE40DCD
:1001DC00E50DE60DDE0BEB280130DE000310DA0D29
:1001EC00DB0DDC0DDD0DDE0BF428ED1FFE28FF28EA
:1001FC0000295A140130DE000310EA0DEB0DEC0D52
:10020C00ED0DDE0B022959086602031D172958084B
:10021C006502031D172957086402031D1729560888
:10022C006302031C1A291B292A296D175608E3029D
:10023C005708031C570FE4025808031C580FE5021B
:10024C005908031C590FE6020130DE005E08EF0767
:10025C001A306F02031C33293429E428660865041C
:10026C006404630403193B293C295B296A145B2948
:10027C000130DE000310DA0DDB0DDC0DDD0DDE0BC5
:10028C004029ED1F4A294B294C295A140130DE0014
:10029C000310EA0DEB0DEC0DED0DDE0B4E29FF30CE
:1002AC00E8070318E90AFF30E907DC1F5E295F291C
:1002BC003E29EF01ED1F632964298029FF306A056F
:1002CC00DE00FF306B05DF00FF306C05E0007F3097
:1002DC006D05E100610860045F045E040319772971
:1002EC0078297B29EF01EF0A80295A1C7E297F2966
:1002FC00802978296F08031984298529B6290130AA
:10030C00DA07003003180130DB0700300318013026
:10031C00DC07003003180130DD075D1C9629972996
:10032C00B6295A08DE005B08DF005C08E0005D08B7
:10033C00E1000130E200610DE10CE00CDF0CDE0CA1
:10034C00E20BA1296108DD006008DC005F08DB001E
:10035C005E08DA000130E8070318E90A0030E90703
:10036C006908803AFF0080307F02031DBF29FF30EF
:10037C006802031CC229C329D129FF30831203133D
:10038C00E8000030E9000030DD000030DC00003017
:10039C00DB000030DA00831203136908803AFF0097
:1003AC0080307F02031DDC29013068020318DF292D
:1003BC00E029ED2983120313E801E9010030DD0087
:1003CC000030DC000030DB000030DA00E701831283
:1003DC0003136808DE005E08EE006E1CF629F72990
:1003EC00F929DC17FD297F30DE005E08DC056E087C
:1003FC00DE0003105E0CDF005F08DD006708DE0026
:10040C005E08DD04A1280800831203133D0880391F
:10041C00C2004208CA003D08C2004207C30043089C
:10042C00CC00BC1F1A2A1B2A1C2A4C144C0803197A
:10043C00202A212A312A4C0A031D252A262A2E2A53
:10044C000030BD000030BC000030BB000030BA00F2
:10045C00BC17BD01392A0030BD000030BC00003093
:10046C00BB000030BA0041088039C2004208CB0002
:10047C004B084A060319432A442A452A4A174108BD
:10048C00C2004207C3004308CB00C01F4E2A4F2AAC
:10049C00502A4B144B080319542A552A652A4B0A27
:1004AC00031D592A5A2A622A0030C1000030C000AC
:1004BC000030BF000030BE00C017C1016D2A0030F3
:1004CC00C1000030C0000030BF000030BE004C083E
:1004DC004B020318722A732AB72A4A1F762A772AE4
:1004EC007B2A8030C2004208CA064C08C20042086F
:1004FC00CD004B08C2004208CC004D08C200420897
:10050C00CB003A08C2004208CD003E08C2004208A7
:10051C00BA004D08C2004208BE003B08C2004208A7
:10052C00CD003F08C2004208BB004D08C200420883
:10053C00BF003C08C2004208CD004008C20042087F
:10054C00BC004D08C2004208C0003D08C200420871
:10055C00CD004108C2004208BD004D08C20042084F
:10056C00C100CD014B08C200C3014308C5004C08B3
:10057C004202C400031CC5034508803AFF008030CA
:10058C007F02031DCB2A1A304402031CCE2ACF2A29
:10059C000C2B831203133D083C043B043A04031D4B
:1005AC00D82ADA2A0130DB2A0030C2004208CD00FA
:1005BC000030BD000030BC000030BB000030BA0081
:1005CC004B08C2004208CC00142B4D1CEE2AEF2A1B
:1005DC00F82A4D08C2000310420C0138C30043082E
:1005EC00CD00FA2A0310CD0C3A1CFD2AFE2AFF2A54
:1005FC00CD170130C2003D0DBD0CBC0CBB0CBA0CB0
:10060C00C20B012B0130C2004208CC07831203132A
:10061C004B084C02031C132B142BEB2A4A1B172BD5
:10062C00182B632B4C08031D1C2B1D2B262B003069
:10063C00BD000030BC000030BB000030BA00912C73
:10064C003E08BA073F0803110318013E03192F2B6C
:10065C00BB07400803110318013E0319362BBC07D6
:10066C00410803110318013E03193D2BBD073D1C26
:10067C00402B412B172C4D1C442B452B4E2B4D083E
:10068C00C2000310420C0138C3004308CD00502BAC
:10069C000310CD0C3A1C532B542B552BCD1701307A
:1006AC00C2003D0DBD0CBC0CBB0CBA0CC20B572BC5
:1006BC000130C2004208CC07172C3D08803AFF00DD
:1006CC004108803A7F02031D752B40083C02031D34
:1006DC00752B3F083B02031D752B3E083A0203188D
:1006EC00782B792BD12BFF30C200FF30C300FF30A9
:1006FC00C400FF30C5003E08C6003F08C7004008D4
:10070C00C8004108C9003A08C6023B08031C3B0F4D
:10071C00902B912BC7023C08031C3C0F962B972B5C
:10072C00C8023D08031C3D0F9C2B9D2BC90246089B
:10073C00C20747080318470FA42BA52BC30748086B
:10074C000318480FAA2BAB2BC40749080318490AF6
:10075C00C5074508BD004408BC004308BB0042085F
:10076C00BA008030C2004208CA06CD09CD0A4D0835
:10077C00031DC12BC22BDF2B0130BA07003003182D
:10078C000130BB07003003180130BC0700300318E0
:10079C000130BD07DF2B3E08BA023F08031C3F0F98
:1007AC00BB024008031C400FBC024108031C410F54
:1007BC00BD023D083C043B043A04031DE62BE72B29
:1007CC00132C4D08031DEB2BEC2B132C0030BD0010
:1007DC000030BC000030BB000030BA00912C01305E
:1007EC00C2000310BA0DBB0DBC0DBD0DC20BF72B17
:1007FC00CD1F012C022C032C3A144D1C062C072C5B
:10080C000A2C0314CD0D0C2C0310CD0D4C08031920
:10081C00102C112C132C0130CC02BC1F162C172CB5
:10082C00F52BCB01CD1F1B2C1C2C2A2C4D087F39F2
:10083C000319212C222C252CCB01CB0A2A2C3A1C57
:10084C00282C292C2A2C222C4B0803192E2C2F2C2B
:10085C00632C0130BA07003003180130BB0700309D
:10086C0003180130BC07003003180130BD073D1CD4
:10087C00402C412C632C3A08C2003B08C3003C08B6
:10088C00C4003D08C5000130C600450DC50CC40CA4
:10089C00C30CC20CC60B4B2C4508BD004408BC0055
:1008AC004308BB004208BA004C0A03195E2C5F2CAB
:1008BC00632C0130C2004208CC074C0A0319672C88
:1008CC00682C6D2C4C08031D6C2C6D2C7B2C003073
:1008DC00BD000030BC000030BB000030BA004C083A
:1008EC00031D792C7A2C7B2CCA014C1C7E2C7F2C62
:1008FC00812CBC17852C7F30C2004208BC054C08EB
:10090C00C2000310420CC3004308BD00CA1F8F2C49
:10091C00902C912CBD1708008312031323088039E7
:10092C00A8002808AD002308A8002807A90029085A
:10093C00B300A21FA22CA32CA42C3314330803192C
:10094C00A82CA92CB82C330A031DAD2CAE2CB62C1C
:10095C000030A3000030A2000030A1000030A00045
:10096C00A217C02C0030A3000030A2000030A10060
:10097C000030A00027088039A8002808AD062708F9
:10098C00A8002807A9002908B200A61FCE2CCF2C3E
:10099C00D02C321432080319D42CD52CE42C320A66
:1009AC00031DD92CDA2CE22C0030A7000030A60055
:1009BC000030A5000030A400A617EC2C0030A700D6
:1009CC000030A6000030A5000030A4003208031946
:1009DC00F02CF12CF62C3308031DF52CF62CFF2CE7
:1009EC000030A3000030A2000030A1000030A000B5
:1009FC00F22F2008A8002808F00026080A128A11F5
:100A0C0006200A128A11710883120313B9007008A8
:100A1C00B8003808A800A901AA01AB012B08B10045
:100A2C002A08B0002908AF002808AE003908A80031
:100A3C00A901AA01AB012B08B7002A08B6002908A6
:100A4C00B5002808B4002108A8002808F0002508E3
:100A5C000A128A1106200A128A11710883120313D2
:100A6C00B9007008B8003808A800A901AA01AB01A8
:100A7C002808AE07290803110318013E0319472D56
:100A8C00AF072A0803110318013E03194E2DB007B6
:100A9C002B0803110318013E0319552DB107390812
:100AAC00A800A901AA01AB012808B4072908031161
:100ABC000318013E0319632DB5072A080311031807
:100ACC00013E03196A2DB6072B0803110318013ECA
:100ADC000319712DB7072208A8002808F000240874
:100AEC000A128A1106200A128A1171088312031342
:100AFC00B9007008B8003808A800A901AA01AB0118
:100B0C002808AE07290803110318013E03198F2D7D
:100B1C00AF072A0803110318013E0319962DB007DD
:100B2C002B0803110318013E03199D2DB107390839
:100B3C00A800A901AA01AB012808B40729080311D0
:100B4C000318013E0319AB2DB5072A08031103182E
:100B5C00013E0319B22DB6072B0803110318013EF1
:100B6C000319B92DB7070830A8000310AE0DAF0D4F
:100B7C00B00DB10DA80BBB2D2108A8002808F00062
:100B8C0024080A128A1106200A128A11710883128B
:100B9C000313B9007008B8003808A8003908A90078
:100BAC00AA01AB012808AE07290803110318013E5E
:100BBC000319E12DAF072A0803110318013E03198D
:100BCC00E82DB0072B0803110318013E0319EF2D74
:100BDC00B1072008A8002808F00025080A128A117D
:100BEC0006200A128A11710883120313B9007008C7
:100BFC00B8003808A8003908A900AA01AB012808D8
:100C0C00AE07290803110318013E03190E2EAF0776
:100C1C002A0803110318013E0319152EB0072B08DF
:100C2C0003110318013E03191C2EB1070830A8004C
:100C3C000310AE0DAF0DB00DB10DA80B1E2E20087C
:100C4C00A8002808F00024080A128A1106200A12AB
:100C5C008A11710883120313B9007008B8003808A0
:100C6C00A8003908A900AA01AB012808AE07290879
:100C7C0003110318013E0319442EAF072A08031170
:100C8C000318013E03194B2EB0072B080311031850
:100C9C00013E0319522EB1072108A8002808F000C4
:100CAC0026080A128A1106200A128A117108831268
:100CBC000313B9007008B8003808A8003908A90057
:100CCC00AA01AB012808B407290803110318013E37
:100CDC000319712EB5072A0803110318013E0319D5
:100CEC00782EB6072B0803110318013E03197F2E2B
:100CFC00B7072208A8002808F00025080A128A1154
:100D0C0006200A128A11710883120313B9007008A5
:100D1C00B8003808A8003908A900AA01AB012808B6
:100D2C00B407290803110318013E03199E2EB507B9
:100D3C002A0803110318013E0319A52EB6072B0828
:100D4C0003110318013E0319AC2EB7072208A800A3
:100D5C002808F00026080A128A1106200A128A11A5
:100D6C00710883120313B9007008B8003808A80082
:100D7C003908A900AA01AB0108300310A80DA90D70
:100D8C00AA0DAB0DFF3E031DC32E2808B40729087E
:100D9C0003110318013E0319D42EB5072A080311B9
:100DAC000318013E0319DB2EB6072B080311031899
:100DBC00013E0319E22EB7072E08A8002F08A90040
:100DCC003008AA003108AB0018300310AB0CAA0C89
:100DDC00A90CA80CFF3E031DEB2E2808B40729080C
:100DEC0003110318013E0319FC2EB5072A08031141
:100DFC000318013E0319032FB6072B080311031820
:100E0C00013E03190A2FB7070830A8000310AE0DD6
:100E1C00AF0DB00DB10DA80B0C2F33083207A80085
:100E2C00A901A90D2808823EB80029080318013E23
:100E3C00FF3EB9003E2F0130A8000310B40DB50DD4
:100E4C00B60DB70DA80B232FB11F2D2F2E2F2F2F23
:100E5C0034140130A8000310AE0DAF0DB00DB10D60
:100E6C00A80B312FFF30B8070318B90AFF30B907A8
:100E7C00B61F412F422F212FB201B11F462F472FF2
:100E8C00632FFF302E05A800FF302F05A900FF307F
:100E9C003005AA007F303105AB002B082A04290449
:100EAC00280403195A2F5B2F5E2FB201B20A632F4D
:100EBC00341C612F622F632F5B2F32080319672FAD
:100ECC00682F992F0130B407003003180130B50793
:100EDC00003003180130B607003003180130B70793
:100EEC00371C792F7A2F992F3408A8003508A900C0
:100EFC003608AA003708AB000130AC002B0DAB0C48
:100F0C00AA0CA90CA80CAC0B842F2B08B7002A0830
:100F1C00B6002908B5002808B4000130B80703183A
:100F2C00B90A0030B9073908803AFF0080307F02D7
:100F3C00031DA22FFF303802031CA52FA62FB12FA3
:100F4C007F3083120313B7008030B6000030B50039
:100F5C000030B400E62F831203133908803AFF00E7
:100F6C0080307F02031DBC2F013038020318BF2FC5
:100F7C00C02FCC2F003083120313B7000030B60003
:100F8C000030B5000030B400AD01E62F831203131E
:100F9C003808A8002808B300FF30B405FF30B505A9
:100FAC007F30B6050030B705331CDD2FDE2FDF2F69
:100FBC00B6173308A8000310280CA9002908B7009D
:100FCC002D08A8002808B7043708A3003608A2008B
:100FDC003508A1003408A00008008313BA3084003F
:100FEC00D1300A168A112F230A128A1183010A1290
:040FFC008A15762CB0
:10100400780879040319072808283728FD01FD0A00
:10101400162801300310F80DF90DFF3E031D0C28AE
:101024000130FC007C08FD07F91F19281A280B2839
:1010340079087B02031D202878087A02031C2328E0
:1010440024282A287808FA027908031CFB03FB02E7
:1010540001300310F90CF80CFF3E031D2B2801305E
:10106400FD02031D362837281A287B08F9007A0860
:10107400F8000800F8007808031941284228562887
:10108400F31F4528462856287009FA007109FB0009
:101094007209FC007309FD00FA0A0319FB0A03191B
:1010A400FC0A0319FD0A5E287308FD007208FC009F
:1010B4007108FB007008FA0073087204710470046C
:1010C400031D652866286F280030F3000030F20005
:1010D4000030F1000030F000F5289630F400740878
:1010E400F90081280130F4007408F9070130031075
:1010F400FD0CFC0CFB0CFA0CFF3E031D7928FE30A2
:101104007D05031D862887287428A3280130F40050
:101114007408F9070130FA07003003180130FB079F
:10112400003003180130FC07003003180130FD07BC
:1011340001300310FD0CFC0CFB0CFA0CFF3E031DEC
:101144009B28FF307D05031DA828A9288828B528D9
:101154000130F9020130F4000310FA0DFB0DFC0D0F
:10116400FD0DF40BAE28FC1BB828B928BF280230AB
:1011740079020318BE28BF28AA287918C228C328D0
:10118400CB28FF30FA05FF30FB057F30FC05FF302C
:10119400FD050310F90C7908F400F501F601F701D7
:1011A40018300310F40DF50DF60DF70DFF3E031D79
:1011B400D3287408FA047508FB047608FC0477083D
:1011C400FD0478080319E728E828ED28F31FEB2825
:1011D400EC28ED28FD177D08F3007C08F2007B085D
:1011E400F1007A08F0000800831603134B084D063B
:1011F400031DFE284A084C06031D012902291C2947
:101204004D08803AF6004908803A7602031D0C29FD
:1012140048084C0203180F29102916290A168A11A6
:1012240074230A128A15B5290A168A1144230A124C
:101234008A15B52949084B06031D222948084A0680
:10124400031D252926293B294B08803AF6004D0821
:10125400803A7602031D30294C084A0203183329C8
:101264003429352916290A168A115C230A128A158B
:10127400B52949084D06031D412948084C06031D9C
:101284004429452954294D08803AF6004B08803AF0
:101294007602031D4F294A084C0203185229532988
:1012A400162935294B08803AF6004D08803A760213
:1012B400031D5E294C084A02031861296229732917
:1012C400831603134908803AF6004D08803A7602E3
:1012D400031D6E294C0848020318712972297329C9
:1012E400B529831603134908803AF6004B08803A5F
:1012F4007602031D7F294A0848020318822983299C
:101304009429831603134D08803AF6004B08803A5B
:101314007602031D8F294A084C0203189229932947
:1013240094293529831603134B08803AF60049089B
:10133400803A7602031DA02948084A020318A3290B
:10134400A429B529831603134D08803AF6004908E9
:10135400803A7602031DB02948084C020318B329C9
:10136400B429B52910290C30F60076088316031326
:10137400CE000800831603134B084D06031DC42931
:101384004A084C06031DC729C829E2294908803A9E
:10139400F6004D08803A7602031DD2294C08480213
:1013A4000318D529D629DC290A168A1174230A12AE
:1013B4008A157B2A0A168A1144230A128A157B2A63
:1013C40049084B06031DE82948084A06031DEB2972
:1013D400EC29012A4D08803AF6004B08803A76023F
:1013E400031DF6294A084C020318F929FA29FB2996
:1013F400DC290A168A115C230A128A157B2A4908F9
:101404004D06031D072A48084C06031D0A2A0B2A09
:101414001A2A4B08803AF6004D08803A7602031DDA
:10142400152A4C084A020318182A192ADC29FB2910
:101434004D08803AF6004B08803A7602031D242AB0
:101444004A084C020318272A282A392A8316031328
:101454004D08803AF6004908803A7602031D342A82
:1014640048084C020318372A382A392A7B2A83165B
:1014740003134B08803AF6004908803A7602031DAC
:10148400452A48084A020318482A492A5A2A831630
:1014940003134B08803AF6004D08803A7602031D88
:1014A400552A4C084A020318582A592A5A2AFB2951
:1014B400831603134908803AF6004B08803A7602F3
:1014C400031D662A4A0848020318692A6A2A7B2AE5
:1014D400831603134908803AF6004D08803A7602D1
:1014E400031D762A4C0848020318792A7A2A7B2A93
:1014F400D6290C30F600760883160313CE000800B4
:1015040083120313AB002130A3002308A600532B3E
:1015140025302C0603198F2A902A9C2A2C08A30014
:101524002B0884002308831380000130A3002308C0
:10153400AB07532BA7010130A007FF30200784001D
:101544000A168A110A200A128A15AC00A300A40103
:101554002408003A0319AF2A532B2308003A03192D
:10156400652B643A0319BA2A0D3A0319BA2A532B84
:101574002608840083130008A900840A0008AA002E
:101584000230A3002308A607AA1FC92ACA2AD32AFD
:101594000330A3002308A704A909AA09A90A031967
:1015A400AA0AAC01AC0A2C08A3002307013E84005C
:1015B4000A168A110A200A128A15A4000A168A1128
:1015C4000A200A128A15A50025082A02031DEC2AFE
:1015D400240829020318EF2AF02AF12AFB2A0130F1
:1015E400A3002308AC0705302C06031DFA2AFB2AA6
:1015F400D52A270803390319002B012B0C2B2D3076
:10160400A3002B0884002308831380000130A30067
:101614002308AB072C08A3002308A8004A2B0A3090
:10162400F8000030F9002808A3002307013E8400D5
:101634000A168A110A200A128A15F0000A168A115B
:101644000A200A128A15F1002A08F3002908F20078
:101654000A168A1128250A128A157108FB007008D7
:10166400FA000A128A1502200A128A157808303EF6
:1016740083120313A4002408AC002C08A3002B0835
:1016840084002308831380000130A3002308AB07E0
:10169400FF30A3002308A807280A031D522B532B4D
:1016A400112B0130A007FF30200784000A168A118D
:1016B4000A200A128A15A3002308AC002C08031D73
:1016C400642B652B8A2A2B0884008313800108006D
:1016D400831203131F08C73918389F001F151F19D9
:1016E400742B752B712B1E0883160313D0001E0850
:1016F400CF0002305002003003194F02031C832B29
:10170400842BF92B4F08F0005008F100F201F3018B
:1017140000300A128A153C200A128A1573088312B3
:101724000313A7007208A6007108A5007008A4009E
:101734003B30A300A330A200D730A1000A30A000A0
:101744000A128A1192240A128A1583120313230897
:10175400C1002208C0002108BF002008BE00C0301C
:10176400BD002030BC000030BB000030BA000A12BB
:101774008A110A220A128A15831203133D08DD0016
:101784003C08DC003B08DB003A08DA003D30D900B5
:101794008730D8002B30D7000230D6000A128A11C5
:1017A4002D200A128A158312031359088316031372
:1017B400A30083120313580883160313A200831291
:1017C4000313570883160313A10083120313560847
:1017D40083160313A0000A168A11CC260A128A154E
:1017E400831603132108D0002008CF00712C403049
:1017F40083120313D5002030D4000030D30000300E
:10180400D200831603134F08F0005008F100F201D0
:10181400F30100300A128A153C200A128A15730853
:1018240083120313A7007208A6007108A5007008AC
:10183400A4003B30A300A330A200D730A1000A309B
:10184400A0000A128A1192240A128A158312031321
:101854002308D1002208D0002108CF002008CE00A0
:101864000A168A110C240A128A15831203135108CA
:10187400DD005008DC004F08DB004E08DA003D3084
:10188400D9008730D8002B30D7000230D6000A1296
:101894008A112D200A128A158312031359088316FC
:1018A4000313A30083120313580883160313A2001F
:1018B40083120313570883160313A100831203131F
:1018C400560883160313A0000A168A11CC260A129E
:1018D4008A15831603132108D0002008CF000D3089
:1018E400AB002B08CE000800831603139F171F13A9
:1018F400831203139F171F13831603139F111F11C2
:101904009F141F100F308500831203131F14C0305F
:1019140083160313860083120313860183160313AD
:101924000910831203130910831603138801831209
:10193400031388010A168A116E260A128A150530C5
:1019440083160313B7003708F40001300A168A110E
:101954006C250A128A151B30F5008030F6000A1631
:101964008A11E6240A128A15F401F40A02300A16CE
:101974008A116C250A128A150B30F5008030F600A6
:101984000A168A11E6240A128A15033083160313F1
:10199400B9008A30B8005530B700B70BCF2CB80B5C
:1019A400CF2CB90BCF2C0A168A1137230A128A15A9
:1019B400053083160313B7003708F40001300A1604
:1019C4008A116C250A128A152430F5008030F6003D
:1019D4000A168A11E6240A128A15033083160313A1
:1019E400B9008A30B8005530B700B70BF72CB80BE4
:1019F400F72CB90BF72C0A168A1137230A128A1509
:101A040083160313CE01CE0A831603134E03031D5C
:101A14000C2D0D2D122D0A128A15E9250A128A158C
:101A2400103083160313B7003708F40001300A1688
:101A34008A116C250A128A150230831603134E0686
:101A4400031D252D262D2C2D0A128A15BC210A12C0
:101A54008A15982D03304E06031D312D322D382D55
:101A64000A168A1116260A128A15982D04304E0673
:101A7400031D3D2D3E2D442D0A168A1181240A1280
:101A84008A15982D05304E06031D492D4A2D502DDB
:101A94000A128A15F6200A128A15982D06304E0667
:101AA400031D552D562D5C2D0A168A11BE250A12CA
:101AB4008A15982D07304E06031D612D622D682D61
:101AC4000A168A1155240A128A15982D08304E06D2
:101AD400031D6D2D6E2D742D0A168A1144230A12CE
:101AE4008A15982D09304E06031D792D7A2D802DE7
:101AF4000A168A115C230A128A15982D0A304E069A
:101B0400031D852D862D8C2D0A168A1174230A1225
:101B14008A15982D0B304E06031D912D922D982D6C
:101B24000A168A11A6230A128A15982D0C308316D8
:101B340003134E06031D9F2DA02DA52D0A128A15F1
:101B44006A230A128A150D30831603134E06031DE9
:101B5400AC2DAD2DB12D0E30B7003708CE000E30B0
:101B64004E06031DB62DB72DBC2D0A168A11482723
:101B74000A128A150F30831603134E06031DC32D54
:101B8400C42DC92D0A168A112A230A128A15831212
:101B940003130914413083160313B800ED30B70062
:101BA400B70BD22DB80BD22DD72D831203130910E6
:101BB400413083160313B800ED30B700B70BE02DA6
:101BC400B80BE02DE52D062D0A128A1100282030CD
:101BD40083120313A000A00BED2D0000C730831265
:101BE40003139F051F151F19F82DF92DF52D1E0838
:101BF40083160313CD001E08CC004D08803AFF0065
:101C040082307F02031D082E66304C0203180B2E0F
:101C14000C2E1B2E831603134D08803AFF008130CF
:101C24007F02031D172E71304C0203181A2E1B2E2F
:101C3400222E013083160313C6000030C700262E5F
:101C440083160313C601C701203083120313A000B7
:101C5400A00B2A2E0000831203131F08C73908386B
:101C64009F001F151F19372E382E342E1E08831679
:101C74000313CB001E08CA004B08803AFF008230D1
:101C84007F02031D472E66304A0203184A2E4B2E4C
:101C94005A2E831603134B08803AFF0081307F02CB
:101CA400031D562E71304A020318592E5A2E612EE6
:101CB400013083160313C4000030C500652E83165B
:101CC4000313C401C501203083120313A000A00B29
:101CD400692E0000831203131F08C73910389F00B0
:101CE4001F151F19762E772E732E1E0883160313C5
:101CF400C9001E08C8004908803AFF0082307F02EC
:101D0400031D862E663048020318892E8A2E992ECA
:101D1400831603134908803AFF0081307F02031DB4
:101D2400952E713048020318982E992EA02E01305A
:101D340083160313C2000030C300A42E83160313BA
:101D4400C201C301203083120313A000A00BA82EEC
:101D5400000083160313C001C10145088312031355
:101D6400A10083160313440883120313A000031075
:101D7400A00DA10D83160313470883120313A300B8
:101D840083160313460883120313A2000310A20D43
:101D9400A30D0310A20DA30D20082204A400210802
:101DA4002304A50083160313420883120313240497
:101DB40083160313C00043088312031325048316F8
:101DC4000313C1000A168A1137230A128A15073031
:101DD4008316031340064104031DF12EF22EFB2E3D
:101DE4000B3083120313A000200883160313CE00C4
:101DF400FF2F83120313861F002F012F5F2FF4017F
:101E0400F40A01300A168A116C250A128A15323036
:101E1400F5008030F6000A168A11E6240A128A15A3
:101E24008316031340084104031D192F1A2F232F6F
:101E3400023083120313A000200883160313CE007C
:101E4400FF2F400341040319282F292F372F023075
:101E54004006410403192F2F302F372F043040063A
:101E64004104031D362F372F402F033083120313F1
:101E7400A000200883160313CE00FF2F0330400672
:101E840041040319462F472F552F063040064104BD
:101E940003194D2F4E2F552F053040064104031DC5
:101EA400542F552F5E2F043083120313A0002008F3
:101EB40083160313CE00FF2FFF2F061F622F632FFD
:101EC400C02FF401F40A01300A168A116C250A1293
:101ED4008A152F30F5008030F6000A168A11E624A0
:101EE4000A128A158316031340084104031D7B2F2D
:101EF4007C2F852F053083120313A000200883163E
:101F04000313CE00FF2F4003410403198A2F8B2FA4
:101F1400992F0230400641040319912F922F992FD3
:101F2400043040064104031D982F992FA22F063038
:101F340083120313A000200883160313CE00FF2F7F
:101F44000330400641040319A82FA92FB72F0630E8
:101F5400400641040319AF2FB02FB72F05304006B8
:101F64004104031DB62FB72F5E2F073083120313CE
:101F7400A000200883160313CE00FF2FF401F40AF7
:101F840001300A168A116C250A128A152C30F500C4
:101F94008030F6000A168A11E6240A128A1583167E
:101FA400031346084704031DD82FD92FE22F083006
:101FB40083120313A000200883160313CE00FF2FFF
:101FC40046084704031DE72FE82FF12F0930831239
:101FD4000313A000200883160313CE00FF2F42082A
:101FE4004304031DF62FF72F5E2F0A3083120313C9
:101FF400A000200883160313CE000800FF1B0A2844
:1020040083137F1883170008840A0319FF0A080042
:1020140010308A000408840A820700340134003432
:102024000A34003464340034E8340334103427347C
:102034006134753474346F342034703468346134EA
:102044007334653420347334793473346D34003428
:10205400413465346F346E342D34413474346B340C
:1020640000346C346F346134643469346E346734EE
:1020740000347034203400346D34503400347034FF
:102084005334003425346434003441340034563439
:0620940000345734003453
:1026540083160313CE01CE0A080064008001840AA5
:102664000406031900340406302B00300A168A11BC
:102674008C230A168A1101300A168A118C230A1631
:102684008A11080083120313861506128612831614
:1026940003134D08BF004C08BE0041300A168A11CE
:1026A400AD240A168A110C30F5007508831603133D
:1026B400CE000800831203138611061686128316B1
:1026C40003134B08BF004A08BE0042300A168A11A1
:1026D400AD240A168A110C30F5007508831603130D
:1026E400CE00080083120313861106128616831681
:1026F40003134908BF004808BE0043300A168A1174
:10270400AD240A168A110C30F500750883160313DC
:10271400CE000800F30083120313881073080A160E
:102724008A11C6230A168A118312031388151A30D4
:10273400F200F830F100F10B9D2BF20B9D2B000001
:1027440083120313881108008312031386110612DF
:10275400861283160313BE01BF011030FB007B08F1
:10276400F40001300A168A116C250A168A112D30DC
:102774000A168A11AD240A168A110C30FB007B0854
:1027840083160313CE000800F000701CCA2BCB2B59
:10279400CF2B831203130816D22B831203130812B0
:1027A400F01CD52BD62BD82B8816D92B8812701D4C
:1027B400DC2BDD2BDF2B0817E02B0813F01DE32B9C
:1027C400E42BE62B8817E72B881308003530831693
:1027D4000313AD002D0883120313A0008316031303
:1027E4002C0883120313A200831603132B088312ED
:1027F4000313A100AE300A128A1582220A168A1126
:10280400AE30F5000030F6000A168A11E6240A16E6
:102814008A110800803083120313D1065508BD00C5
:102824005408BC005308BB005208BA005108C10048
:102834005008C0004F08BF004E08BE000A128A119B
:102844000A220A168A11831203133D08D1003C0898
:10285400D0003B08CF003A08CE000800F401F5018F
:10286400701C352C362C3C2C7208F4070318F50A1E
:102874007308F50701300310F20DF30DFF3E031D3D
:102884003D2C01300310F10CF00CFF3E031D442CD1
:1028940070087104031D4F2C502C322C7508F10064
:1028A4007408F0000800682C0A168A1144230A16DA
:1028B4008A117A2C0A168A1174230A168A117A2C20
:1028C4000A168A115C230A168A117A2C83160313BA
:1028D4004108003A03196F2C7A2C4008033A031973
:1028E400562C063A0319622C033A03195C2C7A2CF1
:1028F4000C30F600760883160313CE000800942CDF
:102904000A168A1144230A168A11A62C0A168A1159
:1029140074230A168A11A62C0A168A115C230A1635
:102924008A11A62C831603134108003A03199B2C21
:10293400A62C4008033A0319822C063A03198E2C5C
:10294400033A0319882CA62C0C30F600760883165B
:102954000313CE000800F40074080F39F100710865
:10296400F2007408F039F1007108F30083120313C4
:1029740088147308F10004300310F10CFF3E031DAA
:10298400BE2C71080A168A11C6230A168A118312EC
:10299400031388154230F100F10BCE2C0000831292
:1029A4000313881172080A168A11C6230A168A119B
:1029B4008312031388154230F100F10BDF2C000061
:1029C4008312031388110800FA01FB010B2D7A0806
:1029D4007507F8007608F7000318F70AFA1FF32CB6
:1029E400F7037708F900790883120313FF007808C6
:1029F40084000A168A1100200A168A110A168A11FE
:102A0400AD240A168A110130FA070318FB0A0030B4
:102A1400FB077A087507F8007608F7000318F70A29
:102A2400FA1F152DF7037708F900790883120313A9
:102A3400FF00780884000A168A1100200A168A11F9
:102A4400003A031D262D272DE92C0800F501F60177
:102A54007008710403192F2D302D672DF701F70A23
:102A64003E2D01300310F00DF10DFF3E031D342DFA
:102A74000130F4007408F707F11F412D422D332D66
:102A840001300310F50DF60DFF3E031D432D7108B3
:102A94007302031D4F2D70087202031C522D532D17
:102AA4005A2D7008F2027108031CF303F302751423
:102AB40001300310F10CF00CFF3E031D5B2D0130BF
:102AC400F702031D662D672D422D7608F100750867
:102AD400F0000800F7007703031D712D722D952D6A
:102AE40074087F3EF5007508FA007A08F500043092
:102AF4000310F50CFF3E031D7A2D7508F6007608C9
:102B0400F8007A080F39F5007508F90078080A16F4
:102B14008A118C230A168A1179080A168A118C23C1
:102B24000A168A11BD2D02307706031D9A2D9B2D9E
:102B3400BD2D7408BF3EF5007508FA007A08F5004B
:102B440004300310F50CFF3E031DA32D7508F60099
:102B54007608F8007A080F39F5007508F900780846
:102B64000A168A118C230A168A1179080A168A1100
:102B74008C230A168A110800FD2D4D08803AF600B0
:102B84004B08803A7602031DC92D4A084C02031CE7
:102B9400CC2DCD2DD32D0A168A1144230A168A1161
:102BA4000F2E0A168A115C230A168A110F2E4D085D
:102BB400803AF6004908803A7602031DE32D48085E
:102BC4004C02031CE62DE72DE82DCD2D0A168A11A3
:102BD40074230A168A110F2E4B08803AF60049080E
:102BE400803A7602031DF82D48084A02031CFB2D87
:102BF400FC2DE82DD32D831603134108003A031945
:102C0400042E0F2E4008013A0319BF2D033A03196D
:102C1400D92D063A0319EE2D0F2E0C30F600760846
:102C240083160313CE000800552E4B08803AF60095
:102C34004D08803A7602031D212E4C084A02031CDB
:102C4400242E252E2B2E0A168A1144230A168A11A5
:102C5400672E0A168A115C230A168A11672E490800
:102C6400803AF6004D08803A7602031D3B2E4C084C
:102C74004802031C3E2E3F2E402E252E0A168A1192
:102C840074230A168A11672E4908803AF6004B0805
:102C9400803A7602031D502E4A084802031C532E24
:102CA400542E402E2B2E831603134108003A031989
:102CB4005C2E672E4008013A0319172E033A0319B4
:102CC400312E063A0319462E672E0C30F60076088C
:102CD40083160313CE00080000300A168A11C62397
:102CE4000A168A118230F500DD30F400F40B782ED8
:102CF400F50B782E7D2E03300A168A118C230A16C2
:102D04008A112130F5007630F400F40B872EF50B90
:102D1400872E000003300A168A118C230A168A11A2
:102D24004830F5006C30F400F40B962EF50B962E1B
:102D3400000003300A168A118C230A168A11023005
:102D44000A168A118C230A168A1102300A168A116D
:102D54008C230A168A1108300A168A118C230A1643
:102D64008A1100300A168A118C230A168A110C3033
:102D74000A168A118C230A168A1100300A168A113F
:102D84008C230A168A1106300A168A118C230A1615
:102D94008A110800031083160313220D230DA400C7
:102DA4002408AA002A08031DD82ED92EE22E0030AA
:102DB400A3000030A2000030A1000030A000472F83
:102DC4002008A4002108A5002208A6002308A700C3
:102DD4001F300310A70CA60CA50CA40CFF3E031D6A
:102DE400EB2E2408A8002808A900A217FF30A0058C
:102DF400FF30A105FF30A2050030A3059630AA02DA
:102E0400AA1F052F062F202F2A08803A973E031861
:102E14000C2F0D2F0E2FD92E01300310A30CA20C52
:102E2400A10CA00CFF3E031D0F2F0130A4002408A9
:102E3400AA07031D1E2F1F2F0E2F372F20302A0203
:102E4400031C252F262F322FD92E0130A400031066
:102E5400A00DA10DA20DA30DA40B292F0130AA02D0
:102E64002A08031D362F372F272F290803193B2F34
:102E74003C2F472FA009A109A209A309A00A0319FD
:102E8400A10A0319A20A0319A30A0800F401F40A07
:102E940002300A168A116C250A168A118316031346
:102EA4003E08F0003F08F100F201F30100300A127D
:102EB4008A153C200A168A11730883120313A7008B
:102EC4007208A6007108A5007008A4003F30A30092
:102ED4000030A2000030A1000030A0000A128A11C4
:102EE40092240A168A1183120313230883160313E8
:102EF400A30083120313220883160313A200831270
:102F04000313210883160313A1008312031320085B
:102F140083160313A0000A168A11CC260A168A11F6
:102F2400831603132108AC002008AB000A168A118B
:102F3400E8230A168A113A30F5008030F6000A16A2
:102F44008A11E6240A168A11073083160313B60081
:102F54003608F40002300A168A116C250A168A1102
:102F6400831603135008AC004F08AB000A168A11ED
:102F7400E8230A168A113830F5008030F6000A1664
:102F84008A11E6240A168A110B3083160313B6003D
:102F94003608F40002300A168A116C250A168A11C2
:102FA400831603135008F1004F08F0003F08F300A4
:102FB4003E08F2000A168A1130240A168A11710892
:102FC40083160313BD007008BC003D08AC003C0828
:102FD400AB000A168A11E8230A168A113C30F50060
:102FE4008030F6000A168A11E6240A168A110F3078
:0C2FF40083160313B6003608CE00080058
:02400E00FA1E98
:00000001FF
