:020000040000FA
:060000000A128A11F02F24
:100C420083120313861106128612080083120313FD
:100C520086150612861208008312031386110616E1
:100C620086120800831203138611061286160800E4
:100C7200831603139F171F13831203139F171F1348
:100C8200831603139F111F119F141F100F3085002D
:100C9200831203131F14C0308316031386008312BA
:100CA2000313860183160313091083120313091019
:100CB2002130FC00FC0B5B2EC730831203139F050F
:100CC2001F151F19652E662E622E1E08FB00831645
:100CD20003131E08FA007B08803AFF0082307F026D
:100CE200031D752E66307A020318782E792E862E11
:100CF2007B08803AFF0081307F02031D822E713013
:100D02007A020318852E862E8A2E83120313061466
:100D12008D2E8312031306102130FC00FC0B8F2E44
:100D2200831203131F08C73908389F001F151F19A4
:100D32009B2E9C2E982E1E08F900831603131E0864
:100D4200F8007908803AFF0082307F02031DAB2E43
:100D5200663078020318AE2EAF2EBC2E7908803A88
:100D6200FF0081307F02031DB82E71307802031814
:100D7200BB2EBC2EC02E831203138614C32E8312E5
:100D8200031386102130FC00FC0BC52E83120313C3
:100D92001F08C73910389F001F151F19D12ED22ED8
:100DA200CE2E1E08F700831603131E08F6007708DE
:100DB200803AFF0082307F02031DE12ED03076029E
:100DC2000318E42EE52EF22E7708803AFF008130D8
:100DD2007F02031DEE2E713076020318F12EF22EE1
:100DE200F62E831203130615F92E8312031306112E
:100DF2002130FC00FC0BFB2E83120313061F022F73
:100E0200032F6D2F7B08803AFC007908803A7C0220
:100E1200031D0D2F78087A02031C102F112F3E2F6D
:100E2200831203130618162F172F3E2F7708803AC6
:100E3200FC007B08803A7C02031D212F7A0876028F
:100E42000318242F252F2B2F0A128A1127260A1264
:100E52008A11D42F831203130619302F312F372F03
:100E62000A128A1133260A128A11D42F0A128A11FF
:100E720021260A128A11D42FD42F7908803AFC0035
:100E82007B08803A7C02031D482F7A087802031CF3
:100E92004B2F4C2FD42F831203138618512F522F0E
:100EA200D42F7708803AFC007908803A7C02031D2F
:100EB2005C2F7808760203185F2F602F662F0A12C4
:100EC2008A112D260A128A11D42F831203130619AE
:100ED2006B2F6C2F3D2F312F861F702F712FC52F37
:100EE2007908803AFC007B08803A7C02031D7B2F44
:100EF2007A087802031C7E2F7F2F9B2F8312031305
:100F02000618842F852F9B2F7B08803AFC007708D8
:100F1200803A7C02031D8F2F76087A020318922FE3
:100F2200932F942F252F831203130619992F9A2F8B
:100F3200372F312F7B08803AFC007908803A7C02F7
:100F4200031DA52F78087A02031CA82FA92FD42FDE
:100F5200831203138618AE2FAF2FD42F7908803A4D
:100F6200FC007708803A7C02031DB92F76087802CC
:100F72000318BC2FBD2FBE2F602F83120313061937
:100F8200C32FC42F3D2F312F0618C82FC92FCA2FA8
:100F9200252F8618CD2FCE2FCF2F602F0619D22FB7
:100FA200D32F372F312F8312031309144130FD0041
:100FB200EE30FC00FC0BDB2FFD0BDB2F000083125D
:100FC200031309104130FD00EE30FC00FC0BE72F4B
:100FD200FD0BE72F0000592E0A128A110028F0019A
:100FE200F101F201F301F401F501F601F701F80153
:0E0FF200F901FA01FB0183010A128A11392E5E
:02400E00FB1E97
:00000001FF
